:100003002C2536642C2536642C2536642C002536A5
:0C001300752C2536752C2533640D0A0071
:0300230002131AAB
:10131A00C0E0C083C082C0D075D000C006C007300C
:10132A009802C298309921C299E510D394004018C6
:10133A00E50A9510FFE49400FE749C2FF58274016F
:10134A003EF583E0F5991510D007D006D0D0D082AB
:05135A00D083D0E03259
:1012A8007526FF7527007528037849E6F52908E6AD
:1012B800F52A784BE6F52B08E6F52C784DE6FE087E
:1012C800E6FFC3E49FF52EE49EF52D7B017A0179B4
:1012D8009C12089C8F22749C2FF9E43401FA7B013C
:1012E8007526FF752700752811784512067E8E2908
:1012F8008F2A784112067E8E2B8F2C787DE6F52D6D
:1013080008E6F52E12089CEF2522F5227D23FF0220
:02131800144D72
:09144D008F108F0AC2998D9922BB
:030053000213CACB
:1013CA00C0E0C083C082C2ED85C53F85C44090019C
:1013DA00CEE53FF0A3E540F0750B01D082D083D073
:0213EA00E032EF
:10117600E50B6401600302122FF50BE51B7016C226
:10118600929001CEE0FFA3E0900000CFF0A3EFF035
:10119600751B01804FE51BB40116C2929001CEE08B
:1011A600FFA3E0900002CFF0A3EFF0751B02805280
:1011B600E51BB40216D2929001CEE0FFA3E09000A8
:1011C60006CFF0A3EFF0751B038058E51BB4031997
:1011D600D2929001CEE0FFA3E0900004CFF0A3EFFF
:1011E600F0751B0475C632803DE51BB40419D29216
:1011F6009001CEE0FFA3E0900008CFF0A3EFF075DA
:101206001B0575C661801FE51BB4051AC2927511D0
:10121600019001CEE0FFA3E090000ACFF0A3EFF02B
:0A122600E4F51B75C65475F382222F
:1013EC00E4F5F3759B01759AFF75F417F5FB75C65B
:0813FC005475F38175F38222A0
:0714560053D9BFE4F5D922D0
:0D002600758840758920758E08758D6022E3
:04001F00759810229E
:10141A0075A40F75A50475D4C075D5FB75E1037560
:03142A00E240227B
:0A14390075A14075F80175A20422A8
:01005100228C
:0A14430075B84075E60875A8D022C0
:1014040075FF80758F01901DFF75B7A575B7F174D1
:05141400FFF0E4F58F7C
:0114190022B0
:1000360012145612002612001F12141A1214041259
:0B00460014391200511214430213EC95
:060ECB008B228A2389241A
:100ED100AB25AA26A9271205557886F6AB22AA23A7
:100EE100A924E675F004A4F58285F083120697C360
:100EF100E52B9BFFE52A9AFEE52999FDE52898FC5B
:100F010078821206C7788212067EEC33500D788201
:100F110012067E1205FC78821206C7AE2CAF2DEEAA
:100F21003395E0FDFC788212068AD312060A500F2F
:100F3100AB2EAA2FA930120620EC4D4E4F705AE469
:100F41007881F67981E7C3787C965022AF2BAE2A5F
:100F5100AD29AC28AB22AA23A9247881E675F00437
:100F6100A4F58285F08312065A78810680D5787CB3
:100F7100E6FFE4FCFDFEAB2BAA2AA929A82812054D
:100F8100ADAB2EAA2FA930120640E47886F6AF2B1E
:100F9100AE2AAD29AC28021053787CE614FF78867E
:100FA100E6C39F4004E4F68003788606AB2EAA2FA1
:100FB100A930C003C002C001120620AB22AA23A996
:100FC100247886E675F004A4F58285F083120697ED
:100FD100C3EF9BFFEE9AFEED99FDEC98FCD001D09A
:100FE10002D003120640AF2BAE2AAD29AC28AB22AA
:100FF100AA23A9247886E675F004A4F58285F083F6
:1010010012065AAB2EAA2FA930120620EF252BFF6C
:10101100EE352AFEED3529FDEC3528FC120640ABF4
:101021002EAA2FA930120620EC1201EEC004C00531
:10103100C006C007787CE6FCE41201F8A804A90503
:10104100AA06AB07D007D006D005D0041201511271
:10105100022C78821206C77886E6AB25AA26A92734
:0810610012059B788212067E45
:011069002264
:100CAF00120036E4F50B121463E4F50812106A1201
:100CBF001176E511B401F5E4F511785F12067EE4C3
:100CCF002FFFEE34E0FEED34FCFDEC34FFFC784FEB
:100CDF001206C7785B12067EE42FFFEE34E0FEEDBE
:100CEF0034FCFDEC34FFFC78531206C7785712061C
:100CFF007EEC1201EEE4FBFA79487843120151E4DD
:100D0F00FBFA794578C312005D7BBE7A9F798A78AA
:100D1F00BF12015112022C787DA60608A607787C17
:100D2F007614752500752600752763784F12067E99
:100D3F008F2B8E2A8D298C28752C00752D96752E4C
:100D4F0000752F007530687B017A00790C120ECB7D
:100D5F0078411206C77525007526007527647853EC
:100D6F0012067E8F2B8E2A8D298C28752C00752DBF
:100D7F0096752E00752F0075306C7B017A00795CAB
:100D8F00120ECB78451206C7784112067EE47B0619
:100D9F00FAF9F812135F78411206C7784512067EEA
:100DAF00E47B06FAF9F812135F78451206C778410B
:100DBF0012067EEF2455FFEE3455FEE43DFDE43C74
:100DCF00FC78411206C7784512067EEF2455FFEED8
:100DDF003455FEE43DFDE43CFC78451206C775250D
:100DEF0000752600752765900004E0FEA3E0FFC3A1
:100DFF00900001E09FFF900000E09EFE3395E08F92
:100E0F002B8E2AF529F528752C00752D96752E0039
:100E1F00752F007530707B017A0079AC120ECB788C
:100E2F0049A60608A6077525007526007527669042
:100E3F000008E0FEA3E0FFC3900003E09FFF9000D7
:100E4F0002E09EFE3395E08F2B8E2AF529F528754B
:100E5F002C00752D96752E00752F007530747B0143
:100E6F007A0079FC120ECB784BA60608A6077525DB
:100E7F000075260075276790000AE0FEA3E0FFC308
:100E8F00900007E09FFF900006E09EFE3395E08FF5
:100E9F002B8E2AF529F528752C00752D96752E00A9
:100EAF00752F007530787B017A01794C120ECB7853
:0C0EBF004DA60608A6071212A8020CBBE4
:0300330002123086
:0F123000C0E0C0D075D000C000C005C006C00728
:10123F0030FF59E51E7007F5A3751E01804CE51EA2
:10124F00B40119AFA3751C008F1DE51A7006D28368
:10125F00F51E803375A300751E02802EADA3E51D0C
:10126F00751D00F51CAF05ED251DF51DE4351CF5AD
:10127F001CE51DAE1C7805CEC313CE13D8F9F51D92
:0C128F008E1CD283751E00750901C2FF81
:0D129B00D007D006D005D000D0D0D0E03272
:06145D00C28375A3082202
:06146300C28375A31022F4
:06146900C28375A31122ED
:10106A00E50964016003021175F509FF0FEFC394E6
:10107A001E40F9E51A7032AB0FAA0EA90DA80CC0D2
:10108A0000C001C002C003AC1CAD1D1201F3D003A5
:10109A00D002D001D00012005D8F0F8E0E8D0D8C04
:1010AA000C121469751A018070E51AB40133AB1970
:1010BA00AA18A917A816C000C001C002C003AC1C18
:1010CA00AD1DE41201F3D003D002D001D00012000A
:1010DA005D8F198E188D178C16121463751A02807B
:1010EA0038E51AB40233AB15AA14A913A812C00022
:1010FA00C001C002C003AC1CAD1DE41201F3D00351
:10110A00D002D001D00012005D8F158E148D138C81
:10111A0012050812145DE4F51AE508C394C8404B99
:10112A00AF15AE14AD13AC1212022C785B1206C7BF
:10113A00AF19AE18AD17AC1612022C785F1206C79B
:10114A00AF0FAE0EAD0DAC0C12022C78571206C7BB
:10115A00E4F508F515F514F513F512F519F518F572
:0B116A0017F516F50FF50EF50DF50C4E
:011175002257
:10005600020298E86480F8E933E83360110460F03E
:10006600ED33EC337009E8FCE9FDEAFEEBFF220410
:1000760060DED3EB9FEA9EE99DE8C2E78CF0C2F70B
:1000860095F0400CE8CCF8E9CDF9EACEFAEBCFFBD7
:1000960012026385D0F05804700320D5B3E80470CB
:1000A600075002B2D50202A292D5EC0460F7E4CC66
:1000B600C0E0C398F8603B94186008400DD0E0FBA0
:1000C60002027AE4FBFAC9FC8028E830E406E4C9B7
:1000D600FBE4CAFCE830E305E4C9CACBFCE85407F4
:1000E6006010F8C3E913F9EA13FAEB13FBEC13FCFF
:1000F600D8F130F52FC3E49CFCEF9BFFEE9AFEEDA2
:1001060099FDD0E0FBEF4E4D4C701222DB0302024C
:100116009FEC2CFCEF33FFEE33FEED33FDED30E7C5
:10012600EB02027AEF2BFFEE3AFEED39FDD0E0FB53
:1001360050130BBB00030202A2ED13FDEE13FEEFFC
:0801460013FFEC13FC02027A26
:10014E000202A2EC5D046005E859047003020298F5
:10015E00120263580460F6EC4860F2EC7004FDFE87
:10016E00FF22C860DB2481C85009C3986002500684
:10017E0002029F9850CAF582E9294B4A7005AB825C
:10018E0002028E75F0007C1A7880C3EF9BEE9AED1A
:10019E0099400DC3EF9BFFEE9AFEED99FDE842F0FC
:1001AE00DC23ACF0D0E0FFD0E0FED0E0FDAB82204F
:1001BE00E7101BEB60BAEC2CFCEF33FFEE33FEEDD9
:1001CE0033FD02027AE803F830E705C0F075F0005F
:1001DE00EF2FFFEE33FEED33FD40B830E7C280AABD
:1001EE0075F020800E75F010800575F0087D007E8C
:1001FE00007F003392D530D5031205FCEC3340104E
:10020E00EF33FFEE33FEED33FDEC33FCD5F0ED2294
:0E021E00E5F0247EA2D513CC92E7CDCEFF22D0
:10022C00EDD2E7CD33EC3392D524814006E4FFFECA
:10023C00FDFC22FCE4CFCECDCC24E0501174FF8029
:10024C00EDC3CC13CCCD13CDCE13CECF13CF0470C6
:07025C00F030D5DE0205FCC5
:10084000E53A2426F8E6053A22782330070278268E
:10085000E475F0011206D30205552000EB7F2ED27D
:10086000008018EF540F2490D43440D4FF30040B90
:10087000EF24BFB41A0050032461FFE53B6002156A
:100880003B053EE53E7002053D30070D7823E475DB
:10089000F0011206D3EF02059B0213A37403D207E3
:1008A0008003E4C207F53A8B238A248925E4F53BCB
:1008B000F53DF53EE53B60077F2012087B80F5752E
:1008C0003CFFC201C200C202C203C205C206C20886
:1008D000120849FF700D3007057F0012088CAF3EEB
:1008E000AE3D22B4255FC2D5C204120849FF24D010
:1008F000B40A00501A75F00A783B30D50508B6FFE7
:100900000106C6A426F620D5047002D20380D9249D
:10091000CFB41A00EF5004C2E5D204020B79D20121
:1009200080C6D20080C0D20280BCD2D580BAD205A7
:1009300080B47F2012087B2002077401B53B004081
:10094000F1120840FF12087B0208B4D208D20680D8
:1009500095120840FB120840FA120840F94A4B7001
:100960000679707A0C7BFF20022EE53B602A7E0020
:100970008E8275830012056E60060EEE653C70F087
:10098000C2D5EBC0E0EAC0E0E9C0E0EE120BD9D07E
:10099000E0F9D0E0FAD0E0FB120555FF60AAEBC009
:1009A000E0EAC0E0E9C0E012087BD0E02401F9D021
:1009B000E03400FAD0E0FBE53C0460DCD53CD980B3
:1009C00087D20280A2120BBC60F7E53C70010412D2
:1009D00002ADA93C600DE53C600914F53C120C63C6
:1009E000EF60F3EA30E702F404C3995077EAF425A4
:1009F0003C0430E701E404F53C800D120BBC60C1FF
:100A0000EA053C253C1202ADEA7839F630E701E40C
:100A1000253C04D53C0420050114120BD9E4C0E0A8
:100A2000120C637839E6601320E70714F6120863A6
:100A3000802204F6D0E014C0E07F00120863E53C99
:100A4000600712085A153C800B30050312085AD073
:100A5000E00208B4D0E00480C5120BBC60A0E53C05
:100A6000041202AD7839EAF6E53C20050260010483
:050A70002404120BD963
:100A750074FF04C0E0120C63120863E53C20050214
:100A8500600312085AD0E0B53CE87F4512086D783E
:100A950039E67F2B30E7047F2DF404C0E012087B94
:100AA500D0E075F00A84C0F0120864D0E012086442
:100AB5000208B4791080027908C206C2088008D2FB
:100AC500D5790A8004790AC2D5E53C047002F53C63
:100AD500E4FAFDFEFF120840FC7B08200113120812
:100AE50040FD7B1030000A120840FE120840FF7BD3
:100AF50020EC3382D592D55013C3E43000069FFF16
:100B0500E49EFEE42001039DFDE49CFCE4CBF8C2D9
:100B150001EC700CCFCECDCCE824F8F870F380173B
:100B2500C3EF33FFEE33FEED33FDEC33FCEB33FB6C
:100B3500994002FB0FD8E9EB300105F8D0E0C44835
:100B4500B201C0E00AEC4D4E4F78207B0070C2EA3E
:100B5500B53C0040BCC0E0120BDBD0F0D0E020017A
:100B650004C4C0E0C4B201C0F0120864D0F0D5F0EE
:100B7500EB0208B41206E30951530AB85809224C8E
:100B8500091E420ABC4F0AC4440AC4490937430A2C
:100B9500CA5509FB460A594509C5470C905009260F
:100BA5002D092A2E094D2B092E23094B200C792AB4
:100BB50008E64800000945E53CB4FF03753C06120C
:100BC5000840FC120840FD120840FE120840FF785C
:100BD500320202DC790AA2D5200314300509B910C6
:100BE500020404B9080104A2D5200602500104201C
:100BF50002689202B53B005034C0E07F20300319F3
:100C05007F30A20272067205500F120C32C202C268
:100C150006C205C2087F30800F300503E9C0E01227
:100C2500087B300503D0E0F9D0E0B53BCC300517A3
:100C35007F30B9100C12087B7F583004077F78800D
:100C450003B9080312087B3002057F2D02087B7F5C
:100C5500202008F87F2B2006F322920280CF7F0008
:100C6500B4070050052432F8E6FF22286E756C6C37
:100C75002900D2011208403001F8C201783B30D575
:100C85000108F60208E62D5043495812084024038E
:100C9500B405004001E4900C8B9312086C743A1271
:0A0CA500086CD203753B04020AB884
:10026300E9D2E7C933E833F892D5EDD2E7CD33ECE1
:0702730033FC5002B2D5225A
:10027A00EC30E7100FBF000C0EBE00080DBD0004E5
:10028A000BEB6014A2D5EB13FCED92E7FD2274FF91
:10029A00FCFDFEFF22E480F8A2D574FF13FC7D80EA
:0302AA00E480EFFE
:1002AD00F920E72824F950037907E4F42402FB1818
:1002BD00DBFDE624FB5014E9600DE4F618E604F6C8
:0F02CD00B40A08E4F6D9F57401F60A22C2D52264
:1002DC00ED33EC3392D5FA602AB4FF33EDC2E77BF1
:1002EC00FF60067A037901E4227A03790A20D504A7
:1002FC007A037905224E614E002B494E46002D495A
:10030C004E4600E47A08F608DAFC7B00740722E813
:10031C00C0E0ECC0E0EDC0E0EEC0E0EFC0E0EA759C
:10032C00F010A4CAABF075F04DA42BFBE435F0FC37
:10033C00EA2410FAEB34C5FBEC34D9FCEDC2E7FF30
:10034C0075F056A4F42411C5F0F434C58FF0A42A2A
:10035C00E5F03BE43CF620E714120515D0E0FFD0A5
:10036C00E0FED0E0FDD0E0FC1201518014F4041248
:10037C000515D0E0FFD0E0FED0E0FDD0E0FC12038C
:10038C00DFD0E0F8E6FAEDD2E7CD33EC332482FB94
:10039C00E4C3CF33CFCE33CECD33CD33DBF37B07BA
:1003AC0075F00A846004F6081B0AE5F0F6088FF075
:1003BC00740AA4FFACF08EF0740AA42CFEACF050BE
:1003CC00010C8DF0740AA42CFDE435F0F608DBDE8C
:0303DC0074072281
:1003DF00EC4D6011E8497017ED33EC3304600DE418
:1003EF00FCFFFEFD22E933E8330470F80202981295
:1003FF00026358046009E4CC248150062850090296
:10040F0002A228400302029FC0E0EB4A7044B98069
:10041F0006D0E0FB02028EEF4E701CBD8008EBFF92
:10042F00EAFEE9FD80EBE98DF0A4FEE5F00204C8D9
:10043F00E9CDF9EAFEEBFFEF89F0A4FCE5F0CE89F8
:10044F00F0A42EFFE435F0CD89F0A42DFEE435F0B5
:10045F008067EF4E7005BD80D780C3EF8BF0A4ACE3
:10046F00F0EE8BF0A42CFCE435F0F8EF8AF0A42C1E
:10047F00E5F038FCE433CB8DF0A42CFCE5F03BF831
:10048F00EE8AF0A42CFCE5F038F8E433CF89F0A421
:10049F002CFCE5F038CF3400CE89F0A42FFFE5F027
:1004AF003EFEE433C98DF0A42EFEE5F039CD8AF07F
:1004BF00A42FFFE5F03EFEE43DFD33D0E0FB5007F7
:1004CF000BBB000F0202A2EC2CFCEF33FFEE33FE4E
:0604DF00ED33FD02027A7C
:1004E5003F8000004120000042C80000447A00001F
:1004F500461C400047C35000497424004B189680A1
:100505004CBEBC205A0E1BCA6753C21C749DC5AE97
:10051500FB60065407601C2323120543EB54386027
:100525000912052F12053E1203DFECF8EDF9EEFA7C
:10053500EFCB22EB12053E80F1543803241C9004C6
:10054500E5FE93FC0EEE93FD0EEE930ECE93FF2289
:0300000002142DBA
:0C142D00787FE4F6D8FD758186020CAFD4
:10055500BB010689828A83E0225002E722BBFE02A4
:09056500E32289828A83E49322D7
:10056E00BB010CE58229F582E5833AF583E0225042
:10057E0006E92582F8E622BBFE06E92582F8E2228C
:0D058E00E58229F582E5833AF583E49322A6
:10059B00BB010689828A83F0225002F722BBFE013F
:0205AB00F32239
:1005AD00E88FF0A4CC8BF0A42CFCE98EF0A42CFCED
:1005BD008AF0EDA42CFCEA8EF0A4CDA8F08BF0A46B
:1005CD002DCC3825F0FDE98FF0A42CCD35F0FCEBCA
:1005DD008EF0A4FEA9F0EB8FF0A4CFC5F02ECD398F
:0F05ED00FEE43CFCEAA42DCE35F0FDE43CFC22FC
:10135F00C2D5E830E70FB2D5E4C39BFBE49AFAE4B9
:10136F0099F9E498F8EC30E717B2D51213951207F4
:10137F0045E4C39BFBE49AFAE499F9E498F88003F7
:10138F0012074530D50DE4C39FFFE49EFEE49DFD9B
:04139F00E49CFC22AC
:0E05FC00C3E49FFFE49EFEE49DFDE49CFC2210
:10060A00EB9FF5F0EA9E42F0E99D42F0EC6480C867
:06061A0064809845F02207
:10062000BB010789828A830207D75005E9F80206D1
:100630007EBBFE05E9F80207E389828A830207EFA1
:10064000BB010789828A830208285005E9F802065F
:0A065000C7BBFE05E9F802083422DA
:10065A00BB010DE58229F582E5833AF58302082874
:10066A005007E92582F80206C7BBFE07E92582F88A
:04067A00020834221C
:0C067E00E6FC08E6FD08E6FE08E6FF22A8
:0D068A00E6FB08E6F908E6FA08E6CBF822E0
:10069700BB010DE58229F582E5833AF5830207FF61
:1006A7005007E92582F802068ABBFE07E92582F88A
:1006B70002080BE58229F582E5833AF583020818DB
:0C06C700ECF608EDF608EEF608EFF6225F
:1006D300FAE6FB0808E6F925F0F618E6CA3AF62228
:1006E300D083D082F8E4937012740193700DA3A3A6
:1006F30093F8740193F5828883E4737402936860BA
:06070300EFA3A3A380DFB9
:1013A300EFB40A07740D1213AE740A309811A8999A
:1013B300B8130CC2983098FDA899C298B811F630AA
:0713C30099FDC299F5992282
:1007090075F008758200EF2FFFEE33FECD33CDCCA7
:1007190033CCC58233C5829BED9AEC99E58298402A
:100729000CF582EE9BFEED9AFDEC99FC0FD5F0D607
:10073900E4CEFBE4CDFAE4CCF9A88222B800C1B931
:100749000059BA002DEC8BF084CFCECDFCE5F0CB6F
:10075900F97818EF2FFFEE33FEED33FDEC33FCEBA8
:1007690033FB10D703994004EB99FB0FD8E5E4F963
:10077900FA227818EF2FFFEE33FEED33FDEC33FC50
:10078900C933C910D7059BE99A4007EC9BFCE99A44
:10079900F90FD8E0E4C9FAE4CCFB2275F010EF2F89
:1007A900FFEE33FEED33FDCC33CCC833C810D70789
:1007B9009BEC9AE899400AED9BFDEC9AFCE899F8C4
:0E07C9000FD5F0DAE4CDFBE4CCFAE4C8F92257
:0C07D700E0FCA3E0FDA3E0FEA3E0FF2295
:0C07E300E2FC08E2FD08E2FE08E2FF2252
:1007EF00E493FC740193FD740293FE740393FF2250
:0C07FF00E0F8A3E0F9A3E0FAA3E0FB227D
:0D080B00E2FB08E2F908E2FA08E2CBF8226D
:10081800E493F8740193F9740293FA740393FB2236
:0C082800ECF0A3EDF0A3EEF0A3EFF02243
:0C083400ECF208EDF208EEF208EFF22200
:00000001FF
